{
  "_format": "hh-sol-artifact-1",
  "contractName": "BankFactory",
  "sourceName": "contracts/TheBankFactory.sol",
  "abi": [
    {
      "inputs": [
        {
          "internalType": "address",
          "name": "_owner",
          "type": "address"
        },
        {
          "internalType": "uint256",
          "name": "_funds",
          "type": "uint256"
        }
      ],
      "name": "createBank",
      "outputs": [],
      "stateMutability": "nonpayable",
      "type": "function"
    },
    {
      "inputs": [
        {
          "internalType": "uint256",
          "name": "",
          "type": "uint256"
        }
      ],
      "name": "list_of_banks",
      "outputs": [
        {
          "internalType": "contract Bank",
          "name": "",
          "type": "address"
        }
      ],
      "stateMutability": "view",
      "type": "function"
    }
  ],
  "bytecode": "0x608060405234801561001057600080fd5b506106ec806100206000396000f3fe608060405234801561001057600080fd5b50600436106100365760003560e01c80638471af771461003b578063b4ff1c1314610057575b600080fd5b610055600480360381019061005091906101f9565b610087565b005b610071600480360381019061006c9190610235565b610183565b60405161007e91906102b4565b60405180910390f35b8181604051610095906101c2565b6100a092919061028b565b604051809103906000f0801580156100bc573d6000803e3d6000fd5b506000806101000a81548173ffffffffffffffffffffffffffffffffffffffff021916908373ffffffffffffffffffffffffffffffffffffffff160217905550600160008054906101000a900473ffffffffffffffffffffffffffffffffffffffff169080600181540180825580915050600190039060005260206000200160009091909190916101000a81548173ffffffffffffffffffffffffffffffffffffffff021916908373ffffffffffffffffffffffffffffffffffffffff1602179055505050565b6001818154811061019357600080fd5b906000526020600020016000915054906101000a900473ffffffffffffffffffffffffffffffffffffffff1681565b6103598061035e83390190565b6000813590506101de8161032f565b92915050565b6000813590506101f381610346565b92915050565b6000806040838503121561020c57600080fd5b600061021a858286016101cf565b925050602061022b858286016101e4565b9150509250929050565b60006020828403121561024757600080fd5b6000610255848285016101e4565b91505092915050565b610267816102cf565b82525050565b6102768161030b565b82525050565b61028581610301565b82525050565b60006040820190506102a0600083018561025e565b6102ad602083018461027c565b9392505050565b60006020820190506102c9600083018461026d565b92915050565b60006102da826102e1565b9050919050565b600073ffffffffffffffffffffffffffffffffffffffff82169050919050565b6000819050919050565b60006103168261031d565b9050919050565b6000610328826102e1565b9050919050565b610338816102cf565b811461034357600080fd5b50565b61034f81610301565b811461035a57600080fd5b5056fe608060405234801561001057600080fd5b50604051610359380380610359833981810160405281019061003291906100ec565b8060008190555081600160006101000a81548173ffffffffffffffffffffffffffffffffffffffff021916908373ffffffffffffffffffffffffffffffffffffffff16021790555033600260006101000a81548173ffffffffffffffffffffffffffffffffffffffff021916908373ffffffffffffffffffffffffffffffffffffffff1602179055505050610192565b6000815190506100d181610164565b92915050565b6000815190506100e68161017b565b92915050565b600080604083850312156100ff57600080fd5b600061010d858286016100c2565b925050602061011e858286016100d7565b9150509250929050565b60006101338261013a565b9050919050565b600073ffffffffffffffffffffffffffffffffffffffff82169050919050565b6000819050919050565b61016d81610128565b811461017857600080fd5b50565b6101848161015a565b811461018f57600080fd5b50565b6101b8806101a16000396000f3fe608060405234801561001057600080fd5b50600436106100415760003560e01c80638da5cb5b14610046578063d5f3948814610064578063d6b82fe314610082575b600080fd5b61004e6100a0565b60405161005b9190610110565b60405180910390f35b61006c6100c6565b6040516100799190610110565b60405180910390f35b61008a6100ec565b604051610097919061012b565b60405180910390f35b600160009054906101000a900473ffffffffffffffffffffffffffffffffffffffff1681565b600260009054906101000a900473ffffffffffffffffffffffffffffffffffffffff1681565b60005481565b6100fb81610146565b82525050565b61010a81610178565b82525050565b600060208201905061012560008301846100f2565b92915050565b60006020820190506101406000830184610101565b92915050565b600061015182610158565b9050919050565b600073ffffffffffffffffffffffffffffffffffffffff82169050919050565b600081905091905056fea26469706673582212205ba49ccab4d82ffd13f341bb74929953ce7daf966d91fff51da096bede6b3cc464736f6c63430008040033a2646970667358221220618d382b0f8bacef840a89a5dcbdd7bfc364eb01154978a394e17843b72a5e6c64736f6c63430008040033",
  "linkReferences": {},
  "deployedLinkReferences": {}
}